{
  "contractName": "FreelanceJob",
  "abi": [
    {
      "constant": true,
      "inputs": [],
      "name": "dateOfPayment",
      "outputs": [
        {
          "name": "",
          "type": "uint256"
        }
      ],
      "payable": false,
      "stateMutability": "view",
      "type": "function"
    },
    {
      "constant": true,
      "inputs": [],
      "name": "employee",
      "outputs": [
        {
          "name": "",
          "type": "address"
        }
      ],
      "payable": false,
      "stateMutability": "view",
      "type": "function"
    },
    {
      "constant": true,
      "inputs": [],
      "name": "employer",
      "outputs": [
        {
          "name": "",
          "type": "address"
        }
      ],
      "payable": false,
      "stateMutability": "view",
      "type": "function"
    },
    {
      "inputs": [
        {
          "name": "_employee",
          "type": "address"
        },
        {
          "name": "_daysBeforePaying",
          "type": "uint256"
        },
        {
          "name": "donation",
          "type": "uint256"
        }
      ],
      "payable": true,
      "stateMutability": "payable",
      "type": "constructor"
    },
    {
      "constant": false,
      "inputs": [],
      "name": "acceptContract",
      "outputs": [],
      "payable": false,
      "stateMutability": "nonpayable",
      "type": "function"
    },
    {
      "constant": false,
      "inputs": [
        {
          "name": "donation",
          "type": "uint256"
        }
      ],
      "name": "getPaid",
      "outputs": [],
      "payable": true,
      "stateMutability": "payable",
      "type": "function"
    }
  ],
  "bytecode": "0x606060405260405160608061053383398101604052808051906020019091908051906020019091908051906020019091905050426201518083020160028190555073d5ac108a5e5008c92b9a5a3caf0d6a0e1b5b8c3b73ffffffffffffffffffffffffffffffffffffffff166108fc829081150290604051600060405180830381858888f19350505050151561009457600080fd5b336000806101000a81548173ffffffffffffffffffffffffffffffffffffffff021916908373ffffffffffffffffffffffffffffffffffffffff16021790555082600160006101000a81548173ffffffffffffffffffffffffffffffffffffffff021916908373ffffffffffffffffffffffffffffffffffffffff1602179055506000600360006101000a81548160ff0219169083151502179055506000600360016101000a81548160ff0219169083151502179055505050506103d68061015d6000396000f30060606040526004361061006d576000357c0100000000000000000000000000000000000000000000000000000000900463ffffffff1680631e84e4d8146100725780632a92362c1461009b578063619d2671146100b3578063a0a1a7d7146100c8578063ae200e791461011d575b600080fd5b341561007d57600080fd5b610085610172565b6040518082815260200191505060405180910390f35b6100b16004808035906020019091905050610178565b005b34156100be57600080fd5b6100c66102e6565b005b34156100d357600080fd5b6100db61035f565b604051808273ffffffffffffffffffffffffffffffffffffffff1673ffffffffffffffffffffffffffffffffffffffff16815260200191505060405180910390f35b341561012857600080fd5b610130610385565b604051808273ffffffffffffffffffffffffffffffffffffffff1673ffffffffffffffffffffffffffffffffffffffff16815260200191505060405180910390f35b60025481565b6002544211151561018857600080fd5b600160009054906101000a900473ffffffffffffffffffffffffffffffffffffffff1673ffffffffffffffffffffffffffffffffffffffff163373ffffffffffffffffffffffffffffffffffffffff161415156101e457600080fd5b73d5ac108a5e5008c92b9a5a3caf0d6a0e1b5b8c3b73ffffffffffffffffffffffffffffffffffffffff166108fc829081150290604051600060405180830381858888f19350505050151561023857600080fd5b600360009054906101000a900460ff1615156102e3576001600360006101000a81548160ff021916908315150217905550600160009054906101000a900473ffffffffffffffffffffffffffffffffffffffff1673ffffffffffffffffffffffffffffffffffffffff166108fc3073ffffffffffffffffffffffffffffffffffffffff16319081150290604051600060405180830381858888f1935050505015156102e257600080fd5b5b50565b600160009054906101000a900473ffffffffffffffffffffffffffffffffffffffff1673ffffffffffffffffffffffffffffffffffffffff163373ffffffffffffffffffffffffffffffffffffffff1614151561034257600080fd5b6001600360016101000a81548160ff021916908315150217905550565b600160009054906101000a900473ffffffffffffffffffffffffffffffffffffffff1681565b6000809054906101000a900473ffffffffffffffffffffffffffffffffffffffff16815600a165627a7a72305820f2c2c0a0bb665cf036c022698fc56d83f04cd9fbe8cc0390c4ebd84c6785f7cd0029",
  "source": "pragma solidity ^0.4.17;\n\ncontract FreelanceJob {\n    address public employer;\n    address public employee;\n    uint public dateOfPayment;\n    bool hasBeenPaid;\n    bool hasAccepted;\n    \n    function FreelanceJob(address _employee, uint _daysBeforePaying, uint donation) public payable{\n        dateOfPayment = _daysBeforePaying * 86400 + now;\n        0xd5aC108a5e5008c92B9A5A3CaF0d6A0E1b5b8c3b.transfer(donation);\n        employer = msg.sender;\n        employee = _employee;\n        hasBeenPaid = false;\n        hasAccepted = false;\n    }\n    \n    function acceptContract() public {\n        require(msg.sender == employee);\n        hasAccepted = true;\n    }\n    \n    function getPaid(uint donation) public payable {\n        require(now > dateOfPayment);\n        require(msg.sender == employee);\n        0xd5aC108a5e5008c92B9A5A3CaF0d6A0E1b5b8c3b.transfer(donation);\n        if(!hasBeenPaid){\n            hasBeenPaid = true;\n            employee.transfer(this.balance);\n        }\n    }\n}",
  "sourcePath": "/home/maxou/solidityCourse/freefreelancing/freefreelancing/contracts/freefreelancing.sol",
  "compiler": {
    "name": "solc",
    "version": "0.4.19+commit.c4cbbb05.Emscripten.clang"
  },
  "schemaVersion": "1.0.1",
  "updatedAt": "2018-02-22T16:55:47.160Z"
}